:020000040800F2
:10000000000002205D2A0008D5290008E329000825
:10001000E9290008EF290008F52900080000000080
:10002000000000000000000000000000FB290008A4
:10003000092A000800000000172A0008252A0008E5
:10004000AD2A0008AD2A0008AD2A0008AD2A000834
:10005000AD2A0008AD2A0008AD2A0008AD2A000824
:10006000AD2A0008AD2A0008AD2A0008AD2A000814
:10007000AD2A0008AD2A0008AD2A0008AD2A000804
:10008000AD2A0008AD2A0008AD2A0008AD2A0008F4
:10009000AD2A0008AD2A0008AD2A0008AD2A0008E4
:1000A000AD2A0008AD2A0008AD2A0008AD2A0008D4
:1000B000AD2A0008AD2A0008AD2A0008AD2A0008C4
:1000C000AD2A0008AD2A0008AD2A0008AD2A0008B4
:1000D000AD2A0008AD2A0008AD2A0008AD2A0008A4
:1000E000AD2A0008AD2A0008AD2A0008AD2A000894
:1000F000AD2A0008AD2A0008AD2A0008AD2A000884
:10010000AD2A0008AD2A0008AD2A0008AD2A000873
:10011000AD2A0008AD2A0008AD2A0008AD2A000863
:10012000AD2A0008AD2A0008AD2A0008AD2A000853
:10013000AD2A0008AD2A0008AD2A0008AD2A000843
:10014000AD2A0008AD2A0008AD2A0008AD2A000833
:10015000AD2A0008AD2A0008AD2A0008AD2A000823
:10016000AD2A0008AD2A0008AD2A0008AD2A000813
:10017000AD2A0008AD2A0008AD2A000800000000E2
:08018000AD2A0008AD2A0008B9
:1001880010B5054C237833B9044B13B10448AFF3C9
:1001980000800123237010BD0C0000200000000027
:1001A800082B000808B5034B1BB103490348AFF3FC
:1001B800008008BD0000000010000020082B000887
:1001C80053B94AB9002908BF00281CBF4FF0FF31B6
:1001D8004FF0FF3000F07AB9ADF1080C6DE904CEAC
:1001E80000F006F8DDF804E0DDE9022304B070470A
:1001F8002DE9F0478C460D460446089E002B51D148
:100208008A4217466DD9B2FA82FEBEF1000F0BD0B2
:10021800CEF1200C01FA0EF520FA0CFC02FA0EF7CA
:100228004CEA050C00FA0EF44FEA174A250CBCFB01
:10023800FAF81FFA87F90AFB18CC45EA0C4508FBBF
:1002480009F3AB420AD9ED1908F1FF3280F0238196
:10025800AB4240F22081A8F102083D44ED1AA4B255
:10026800B5FBFAF00AFB105544EA054400FB09F90E
:10027800A14509D9E41900F1FF3380F00A81A145AD
:1002880040F2078102383C44A4EB090440EA0840E4
:100298000021002E61D024FA0EF40023346073602C
:1002A800BDE8F0878B4207D9002E54D0002186E89C
:1002B80021000846BDE8F087B3FA83F1002940F031
:1002C8008E80AB4202D3824200F2FA80841A65EB38
:1002D80003050120AC46002E3FD086E81010BDE88B
:1002E800F08712B90127B7FBF2F7B7FA87FEBEF11C
:1002F800000F34D1EB1B3A0C1FFA87FC0121B3FB2A
:10030800F2F8250C02FB183345EA03450CFB08F309
:10031800AB4207D9ED1908F1FF3002D2AB4200F227
:10032800D1808046ED1AA3B2B5FBF2F002FB10555E
:1003380043EA05440CFB00FCA44507D9E41900F185
:10034800FF3302D2A44500F2B8801846A4EB0C048F
:1003580040EA08409DE731463046BDE8F087CEF1D7
:10036800200405FA0EF307FA0EF720FA04F83A0CFF
:1003780025FA04F448EA0308B4FBF2F14FEA1845F9
:1003880002FB11441FFA87FC45EA044501FB0CF304
:10039800AB4200FA0EF409D9ED1901F1FF3080F0F3
:1003A8008A80AB4240F2878002393D44EB1A1FFA3B
:1003B80088F5B3FBF2F002FB103345EA034500FB76
:1003C8000CF3AB4207D9ED1900F1FF386FD2AB42FD
:1003D8006DD902383D44EB1A40EA01418FE7C1F17B
:1003E800200722FA07F88B4005FA01F448EA0303CC
:1003F80020FA07FE4FEA134CFD404EEA040EB5FB07
:10040800FCF94FEA1E440CFB19551FFA83F844EA1D
:10041800054509FB08F4AC4202FA01F200FA01FAB8
:1004280008D9ED1809F1FF3043D2AC4241D9A9F1FE
:1004380002091D442D1B1FFA8EFEB5FBFCF00CFBB8
:1004480010554EEA054400FB08F8A04507D9E41802
:1004580000F1FF3529D2A04527D902381C4440EACB
:100468000940A4EB0804A0FB02894C45C6464D464A
:1004780015D312D056B1BAEB0E0364EB050404FA97
:1004880007F7CB401F43CC40376074600021BDE8BC
:10049800F0871846F8E69046E0E6C245EAD2B8EB9F
:1004A800020E69EB03050138E4E72846D7E7404622
:1004B80091E78146BEE7014678E702383C4445E7C4
:1004C800084608E7A8F102083D442BE7704700BF3B
:1004D80080B500AF0E4A0E4B1B6843F400731360DF
:1004E8000B4A0B4B1B6843F480631360084A084BA4
:1004F8001B6843F480731360032000F02DF900207B
:1005080000F008F802F0F2F90023184680BD00BF99
:10051800003C024080B582B000AF7860124B1A6888
:10052800124B1B7819464FF47A73B3FBF1F3B2FB05
:10053800F3F3184600F037F90346002B01D00123E6
:100548000EE07B680F2B0AD8002279684FF0FF3045
:1005580000F00DF9064A7B681360002300E00123D0
:1005680018460837BD4680BD08000020040000205A
:100578000000002080B400AF064B1B781A46064BDB
:100588001B681344044A136000BFBD465DF8047B32
:10059800704700BF040000203000002080B400AF86
:1005A800034B1B681846BD465DF8047B704700BFC7
:1005B8003000002080B584B000AF7860FFF7EEFF10
:1005C800B8607B68FB60FB68B3F1FF3F05D0094B5F
:1005D8001B781A46FB681344FB6000BFFFF7DEFF79
:1005E8000246BB68D21AFB689A42F7D300BF10379D
:1005F800BD4680BD0400002080B485B000AF78609F
:100608007B6803F00703FB600C4BDB68BB60BA68D0
:100618004FF6FF031340BB60FB681A02BB68134325
:1006280043F0BF6343F40033BB60044ABB68D36044
:1006380000BF1437BD465DF8047B704700ED00E04D
:1006480080B400AF044BDB681B0A03F007031846AD
:10065800BD465DF8047B704700ED00E080B483B0D0
:1006680000AF03463960FB7197F90730002B0ADBAE
:100678000D4997F907303A68D2B21201D2B20B4449
:1006880083F800230AE00949FB7903F00F03043BD0
:100698003A68D2B21201D2B20B441A7600BF0C37B4
:1006A800BD465DF8047B704700E100E000ED00E026
:1006B80080B489B000AFF860B9607A60FB6803F075
:1006C8000703FB61FB69C3F10703042B28BF04235D
:1006D800BB61FB690433062B02D9FB69033B00E0CD
:1006E80000237B610122BB6902FA03F35A1EBB682F
:1006F8001A407B699A4001217B6901FA03F3591E6C
:100708007B680B40134318462437BD465DF8047BCD
:100718007047000080B582B000AF78607B68013B0D
:10072800B3F1807F01D301230FE00A4A7B68013BC4
:1007380053600F214FF0FF30FFF790FF054B002269
:100748009A60044B07221A60002318460837BD46F2
:1007580080BD00BF10E000E080B582B000AF7860D7
:100768007868FFF749FF00BF0837BD4680BD80B5F0
:1007780086B000AF0346B9607A60FB7300237B61E3
:10078800FFF75EFF78617A68B9687869FFF790FFCC
:10079800024697F90F3011461846FFF75FFF00BF72
:1007A8001837BD4680BD80B582B000AF78607868E4
:1007B800FFF7B0FF034618460837BD4680BD000066
:1007C80080B489B000AF7860396000237B61002372
:1007D8003B610023BB610023FB616BE10122FB69E4
:1007E80002FA03F37B613B681A687B6913403B613B
:1007F8003A697B699A4240F05A813B685B68012BF1
:100808000BD03B685B68022B07D03B685B68112BF9
:1008180003D03B685B68122B30D17B689B68BB6157
:10082800FB695B00032202FA03F3DB43BA69134056
:10083800BB613B68DA68FB695B0002FA03F3BA69DB
:100848001343BB617B68BA699A607B685B68BB616C
:100858000122FB6902FA03F3DB43BA691340BB6167
:100868003B685B681B0903F00102FB6902FA03F3AA
:10087800BA691343BB617B68BA695A607B68DB68F5
:10088800BB61FB695B00032202FA03F3DB43BA692D
:100898001340BB613B689A68FB695B0002FA03F38B
:1008A800BA691343BB617B68BA69DA603B685B6805
:1008B800022B03D03B685B68122B23D1FB69DA0853
:1008C8007B68083253F82230BB61FB6903F00703E9
:1008D8009B000F2202FA03F3DB43BA691340BB61A2
:1008E8003B681A69FB6903F007039B0002FA03F3EC
:1008F800BA691343BB61FB69DA087B680832B969D6
:1009080043F822107B681B68BB61FB695B0003220C
:1009180002FA03F3DB43BA691340BB613B685B68C7
:1009280003F00302FB695B0002FA03F3BA6913439D
:10093800BB617B68BA691A603B685B6803F08053E7
:10094800002B00F0B4800023FB605F4A5E4B5B6CB9
:1009580043F4804353645C4B5B6C03F48043FB605B
:10096800FB685A4AFB699B08023352F82330BB6183
:10097800FB6903F003039B000F2202FA03F3DB4336
:10098800BA691340BB617B68514A93422BD07B689C
:10099800504A934225D07B684F4A93421FD07B68C8
:1009A8004E4A934219D07B684D4A934213D07B68D4
:1009B8004C4A93420DD07B684B4A934207D07B68E0
:1009C8004A4A934201D107230EE008230CE006238C
:1009D8000AE0052308E0042306E0032304E00223D9
:1009E80002E0012300E00023FA6902F0030292000A
:1009F8009340BA691343BB613449FB699B080233CE
:100A0800BA6941F823203A4B1B68BB613B69DB4359
:100A1800BA691340BB613B685B6803F48033002B01
:100A280003D0BA693B691343BB61314ABB691360A0
:100A38002F4B5B68BB613B69DB43BA691340BB6101
:100A48003B685B6803F40033002B03D0BA693B6949
:100A58001343BB61264ABB695360254B9B68BB6146
:100A68003B69DB43BA691340BB613B685B6803F4CD
:100A78008013002B03D0BA693B691343BB611C4A3E
:100A8800BB6993601A4BDB68BB613B69DB43BA699E
:100A98001340BB613B685B6803F40013002B03D071
:100AA800BA693B691343BB61114ABB69D360FB69EF
:100AB8000133FB61FB690F2B7FF690AE00BF243733
:100AC800BD465DF8047B704700380240003801409D
:100AD800000002400004024000080240000C0240EE
:100AE800001002400014024000180240001C02409E
:100AF800003C014080B483B000AF78600B467B8037
:100B080013467B707B78002B03D07A887B689A61C8
:100B180003E07B881A047B689A6100BF0C37BD46E6
:100B28005DF8047B7047000090B585B000AF786031
:100B38007B68002B01D101231FE17B6893F83D30CE
:100B4800DBB2002B06D17B68002283F83C20786852
:100B580001F0F4FE7B68242283F83D207B681B6843
:100B68007A681268126822F001021A607B681B68B2
:100B78007A681268126842F400421A607B681B683F
:100B88007A681268126822F400421A6001F0B0FC18
:100B9800F8607B685B687B4A934207D8FB687A4AAF
:100BA800934294BF01230023DBB206E0FB68774A37
:100BB800934294BF01230023DBB2002B01D0012311
:100BC800DBE0FB68724AA2FB03239B0CBB607B68DB
:100BD8001B687A681268526822F03F01BA680A43B3
:100BE8005A607B681A687B681B681B6A23F03F01A0
:100BF8007B685B686348834202D8BB68013309E0BD
:100C0800BB684FF4967000FB03F36248A0FB030334
:100C18009B0901330B4313627B6818687B681B6868
:100C2800DB6923F44F4222F0FF027B685B68554979
:100C38008B420DD8FB68591E7B685B685B00B1FB73
:100C4800F3F30133C3F30B03042B38BF04234FE042
:100C58007B689B68002B11D1FB685C1E7B68596818
:100C68000B465B000B44B4FBF3F30133C3F30B03F4
:100C7800002B0CBF01230023DBB212E0FB685C1ED3
:100C88007B6859680B469B000B4499000B44B4FBE6
:100C9800F3F30133C3F30B03002B0CBF0123002331
:100CA800DBB2002B01D0012322E07B689B68002B7C
:100CB8000ED1FB685C1E7B6859680B465B000B44D1
:100CC800B4FBF3F30133C3F30B0343F400430FE026
:100CD800FB685C1E7B6859680B469B000B449900B7
:100CE8000B44B4FBF3F30133C3F30B0343F4404366
:100CF8001343C3617B681B687A681268126822F024
:100D0800C0017A68D0697A68126A02430A431A6095
:100D18007B681A687B681B689B6823F4034323F08D
:100D2800FF03796808697968C96801430B439360D0
:100D38007B681B687A681268D26822F0FF017A68BB
:100D480050697A68926902430A43DA607B681B68D3
:100D58007A681268126842F001021A607B68002201
:100D68001A647B68202283F83D207B6800221A637E
:100D78007B68002283F83E20002318461437BD46BE
:100D880090BD00BFA08601007F841E00FF083D00C3
:100D980083DE1B43D34D621080B588B002AFF86084
:100DA8007A601A460B467B8113463B81FFF7F6FBB8
:100DB8007861FB6893F83D30DBB2202B40F0E0808F
:100DC8007B690093192301227049F86800F09AFDA5
:100DD8000346002B01D00223D3E0FB6893F83C3094
:100DE800012B01D10223CCE0FB68012283F83C20CF
:100DF800FB681B681B6803F00103012B07D0FB6825
:100E08001B68FA681268126842F001021A60FB68EF
:100E18001B68FA681268126822F400621A60FB689C
:100E2800212283F83D20FB68102283F83E20FB68CE
:100E380000221A64FB687A685A62FB683A895A8504
:100E4800FB685B8D9AB2FB681A85FB68504ADA62C8
:100E580079897B693A6AF86800F0EEFB0346002B53
:100E680001D001238DE000233B61FB681B685B69AF
:100E78003B61FB681B689B693B613B6966E07A697B
:100E8800396AF86800F014FE0346002B0DD0FB68A1
:100E98001B6C042B07D1FB681B68FA681268126880
:100EA80042F400721A6001236BE0FB681B68FA6861
:100EB800526A12781A61FB685B6A5A1CFB685A62AC
:100EC800FB685B8D9BB2013B9AB2FB685A85FB6855
:100ED8001B8D013B9AB2FB681A85FB681B685B692E
:100EE80003F00403042B1BD1FB681B8D002B17D0C8
:100EF800FB681B68FA68526A12781A61FB685B6AB9
:100F08005A1CFB685A62FB685B8D9BB2013B9AB224
:100F1800FB685A85FB681B8D013B9AB2FB681A85F2
:100F28007A69396AF86800F004FE0346002B0DD090
:100F3800FB681B6C042B07D1FB681B68FA681268F6
:100F4800126842F400721A6001231AE0FB681B8DD4
:100F5800002B94D1FB681B68FA681268126842F487
:100F680000721A60FB68202283F83D20FB6800228B
:100F780083F83E20FB68002283F83C20002300E031
:100F8800022318461837BD4680BD00BF0200100076
:100F98000000FFFF80B58CB002AFF860084611462C
:100FA8001A4603467B810B463B811346FB80FFF7BD
:100FB800F5FA7862FB6893F83D30DBB2202B40F0FD
:100FC80008827B6A0093192301227B49F86800F0A4
:100FD80099FC0346002B01D00223FBE1FB6893F840
:100FE8003C30012B01D10223F4E1FB68012283F894
:100FF8003C20FB681B681B6803F00103012B07D02A
:10100800FB681B68FA681268126842F001021A60ED
:10101800FB681B68FA681268126822F400621A609A
:10102800FB68222283F83D20FB68402283F83E209B
:10103800FB6800221A64FB683A6B5A62FB68BA8E36
:101048005A85FB685B8D9AB2FB681A85FB685B4A18
:10105800DA62F8883A8979897B6A0193BB6B0093D5
:101068000346F86800F068FB0346002B01D0012313
:10107800B0E1FB681B8D002B13D100233B62FB689A
:101088001B685B693B62FB681B689B693B623B6A48
:10109800FB681B68FA681268126842F400721A60EA
:1010A80084E1FB681B8D012B1BD1FB681B68FA6868
:1010B8001268126822F480621A600023FB61FB68E0
:1010C8001B685B69FB61FB681B689B69FB61FB69CB
:1010D800FB681B68FA681268126842F400721A60AA
:1010E80064E1FB681B8D022B1BD1FB681B68FA6847
:1010F8001268126822F480621A60FB681B68FA683A
:101108001268126842F400621A600023BB61FB682F
:101118001B685B69BB61FB681B689B69BB61BB693A
:1011280044E100237B61FB681B685B697B61FB68AA
:101138001B689B697B617B6938E1FB681B8D032B0E
:1011480000F2F180FB681B8D012B23D17A6AB96B01
:10115800F86800F02FFD0346002B01D0012339E188
:10116800FB685B6AFA6812681269D2B21A70FB6887
:101178005B6A5A1CFB685A62FB681B8D013B9AB27A
:10118800FB681A85FB685B8D9BB2013B9AB2FB68D2
:101198005A850BE1FB681B8D022B4ED17B6A0093AD
:1011A800BB6B00220649F86800F0ACFB0346002B35
:1011B80008D001230EE100BF020010000000FFFF6D
:1011C80004000100FB681B68FA681268126842F4A0
:1011D80000721A60FB685B6AFA6812681269D2B218
:1011E8001A70FB685B6A5A1CFB685A62FB681B8DA5
:1011F800013B9AB2FB681A85FB685B8D9BB2013B89
:101208009AB2FB685A85FB685B6AFA6812681269C9
:10121800D2B21A70FB685B6A5A1CFB685A62FB6898
:101228001B8D013B9AB2FB681A85FB685B8D9BB2EC
:10123800013B9AB2FB685A85B8E07B6A0093BB6BA6
:1012480000226649F86800F05DFB0346002B01D0D8
:101258000123BFE0FB681B68FA681268126822F471
:1012680080621A60FB685B6AFA6812681269D2B217
:101278001A70FB685B6A5A1CFB685A62FB681B8D14
:10128800013B9AB2FB681A85FB685B8D9BB2013BF8
:101298009AB2FB685A857B6A0093BB6B00224F4960
:1012A800F86800F02FFB0346002B01D0012391E0E2
:1012B800FB681B68FA681268126842F400721A60C8
:1012C800FB685B6AFA6812681269D2B21A70FB6826
:1012D8005B6A5A1CFB685A62FB681B8D013B9AB219
:1012E800FB681A85FB685B8D9BB2013B9AB2FB6871
:1012F8005A85FB685B6AFA6812681269D2B21A707A
:10130800FB685B6A5A1CFB685A62FB681B8D013BD1
:101318009AB2FB681A85FB685B8D9BB2013B9AB257
:10132800FB685A8542E07A6AB96BF86800F042FCBB
:101338000346002B01D001234CE0FB685B6AFA6886
:1013480012681269D2B21A70FB685B6A5A1CFB6891
:101358005A62FB681B8D013B9AB2FB681A85FB68D1
:101368005B8D9BB2013B9AB2FB685A85FB681B6890
:101378005B6903F00403042B18D1FB685B6AFA6805
:1013880012681269D2B21A70FB685B6A5A1CFB6851
:101398005A62FB681B8D013B9AB2FB681A85FB6891
:1013A8005B8D9BB2013B9AB2FB685A85FB681B8D2B
:1013B800002B7FF4C2AEFB68202283F83D20FB6837
:1013C800002283F83E20FB68002283F83C2000239B
:1013D80000E0022318462837BD4680BD04000100FE
:1013E80080B58AB002AFF8607A603B600B467B81BB
:1013F800FFF7D4F8F8610123BB61FB6893F83D302F
:10140800DBB2202B40F00F81FB69009319230122E6
:101418008749F86800F076FA0346002B01D00223CA
:1014280002E1FB6893F83C30012B01D10223FBE079
:10143800FB68012283F83C20FB681B681B6803F0EB
:101448000103012B07D0FB681B68FA681268126851
:1014580042F001021A60FB681B68FA681268126899
:1014680022F400621A60FB68242283F83D20FB689E
:1014780000221A64FB686F4ADA62FB681B68FA6824
:101488001268126842F480721A60FB6900933B6824
:1014980000224FF00111F86800F034FA0346002BDF
:1014A8000CD0FB681B681B6803F48073002B03D007
:1014B800FB684FF400721A640323B5E0FB681B68ED
:1014C8007A89D2B202F0FE021A61FFF767F8F86172
:1014D800FB681B685B6903F00203022B0CBF012346
:1014E8000023DBB2FB75FB681B685B6903F4806350
:1014F800B3F5806F0CBF01230023DBB2BB7525E079
:10150800FFF74CF80246FB69D21A3B689A4202D8A8
:101518003B68002B03D1FB68A02283F83D20FB68C1
:101528001B685B6903F00203022B0CBF0123002335
:10153800DBB2FB75FB681B685B6903F48063B3F57A
:10154800806F0CBF01230023DBB2BB75FB6893F8E7
:101558003D30DBB2A02B05D0FB7D002B02D1BB7D3B
:10156800002BCDD0FB68202283F83D20FB681B6848
:101578005B6903F00203022B29D1FB681B68FA6838
:101588001268126842F400721A6000233B61FB681B
:101598001B685B693B61FB681B689B693B613B6936
:1015A800FB690093192301222149F86800F0AAF980
:1015B8000346002B01D0012336E0FB68202283F884
:1015C8003D20FB68002283F83C2000232CE0FB68C8
:1015D8001B68FA681268126842F400721A60FB68A5
:1015E8001B686FF480625A61FB690093192301221A
:1015F8000F49F86800F086F90346002B01D0012353
:1016080012E0BB690133BB61BA697B689A42FFF497
:1016180034AFFB68202283F83D20FB68002283F862
:101628003C20012300E0022318462037BD4680BD38
:10163800020010000000FFFF80B588B002AFF8601C
:101648007A603B600B467B81FB68DB6A7B617B6968
:10165800082B06D07B69012B03D07B6913F5803FEB
:1016680008D1FB681B68FA681268126842F4807235
:101678001A600BE0FB681B6B122B07D1FB681B6819
:10168800FA681268126842F480721A603B68009324
:101698007B6800224FF00111F86800F033F9034627
:1016A800002B0CD0FB681B681B6803F48073002BAD
:1016B80003D0FB684FF400721A64032334E0FB681C
:1016C8001B69B3F5804F07D1FB681B687A89D2B2D2
:1016D80002F0FE021A611BE0FB681B687A89D211CE
:1016E800D2B202F00602D2B262F00F02D2B21A618E
:1016F8003B687A680E49F86800F05BF90346002BEE
:1017080001D0012310E0FB681B687A89D2B21A6104
:101718003B687A680749F86800F04BF90346002BE4
:1017280001D0012300E0002318461837BD4680BDCC
:10173800080001000200010080B588B002AFF8601F
:10174800084611461A4603467B810B463B811346E1
:10175800FB80FB681B68FA681268126842F48062B2
:101768001A60FB681B68FA681268126842F4807293
:101778001A607B6A00933B6A00224FF00111F868F7
:1017880000F0C0F80346002B0CD0FB681B681B68F0
:1017980003F48073002B03D0FB684FF400721A64C3
:1017A8000323A8E0FB681B687A89D2B202F0FE0224
:1017B8001A617B6A3A6A5249F86800F0FAF80346F7
:1017C800002B01D0012396E000237B61FB681B6896
:1017D8005B697B61FB681B689B697B617B697A6AD3
:1017E800396AF86800F064F90346002B0DD0FB68ED
:1017F8001B6C042B07D1FB681B68FA681268126817
:1018080042F400721A60012375E0FB88012B05D1B0
:10181800FB681B683A89D2B21A6121E0FB681B6831
:101828003A89120A92B2D2B21A617A6A396AF868A7
:1018380000F03EF90346002B0DD0FB681B6C042B0F
:1018480007D1FB681B68FA681268126842F40072D4
:101858001A6001234FE0FB681B683A89D2B21A610B
:101868007A6A396AF86800F023F90346002B0DD02C
:10187800FB681B6C042B07D1FB681B68FA681268AD
:10188800126842F400721A60012334E0FB681B6896
:10189800FA681268126842F480721A607B6A0093D0
:1018A8003B6A00224FF00111F86800F02BF803465C
:1018B800002B0CD0FB681B681B6803F48073002B9B
:1018C80003D0FB684FF400721A64032313E0FB682B
:1018D8001B687A89D2B242F00102D2B21A617B6ADD
:1018E8003A6A0749F86800F064F80346002B01D00B
:1018F800012300E0002318461837BD4680BD00BF0D
:101908000200010080B584B000AFF860B9603B60A8
:101918001346FB7125E03B68B3F1FF3F21D0FEF78A
:101928003DFE0246BB69D21A3B689A4202D83B6820
:10193800002B16D1FB6800221A63FB68202283F86B
:101948003D20FB68002283F83E20FB681B6C43F0B7
:101958002002FB681A64FB68002283F83C200123FC
:1019680023E0BB681B0CDBB2012B0DD1FB681B68A5
:101978005B69DA43BB6813409BB2002B0CBF0123A1
:101988000023DBB21A460CE0FB681B689B69DA434C
:10199800BB6813409BB2002B0CBF01230023DBB2B2
:1019A8001A46FB799A42B6D0002318461037BD462E
:1019B80080BD80B584B000AFF860B9607A603B60E4
:1019C80051E0FB681B685B6903F48063B3F5806FC3
:1019D80023D1FB681B68FA681268126842F4007227
:1019E8001A60FB681B686FF480625A61FB6800220A
:1019F8001A63FB68202283F83D20FB68002283F8E5
:101A08003E20FB681B6C43F00402FB681A64FB6809
:101A1800002283F83C20012346E07B68B3F1FF3FB6
:101A280021D0FEF7BBFD02463B68D21A7B689A427A
:101A380002D87B68002B16D1FB6800221A63FB686A
:101A4800202283F83D20FB68002283F83E20FB68B3
:101A58001B6C43F02002FB681A64FB68002283F8C1
:101A68003C20012320E0BB681B0CDBB2012B0CD10E
:101A7800FB681B685B69DA43BB6813409BB2002BA9
:101A880014BF01230023DBB20BE0FB681B689B69D2
:101A9800DA43BB6813409BB2002B14BF0123002319
:101AA800DBB2002B8DD1002318461037BD4680BD10
:101AB80080B584B000AFF860B9607A602DE0F8684E
:101AC80000F0CEF80346002B01D001232DE0BB68BF
:101AD800B3F1FF3F21D0FEF761FD02467B68D21AC1
:101AE800BB689A4202D8BB68002B16D1FB6800225B
:101AF8001A63FB68202283F83D20FB68002283F8E4
:101B08003E20FB681B6C43F02002FB681A64FB68EC
:101B1800002283F83C20012307E0FB681B685B690F
:101B280003F08003802BCAD1002318461037BD4626
:101B380080BD80B584B000AFF860B9607A602DE0F0
:101B4800F86800F08DF80346002B01D001232DE042
:101B5800BB68B3F1FF3F21D0FEF720FD02467B684A
:101B6800D21ABB689A4202D8BB68002B16D1FB6810
:101B780000221A63FB68202283F83D20FB680022BC
:101B880083F83E20FB681B6C43F02002FB681A6454
:101B9800FB68002283F83C20012307E0FB681B68F0
:101BA8005B6903F00403042BCAD1002318461037DD
:101BB800BD4680BD80B584B000AFF860B9607A607A
:101BC80042E0FB681B685B6903F01003102B19D116
:101BD800FB681B686FF010025A61FB6800221A63E9
:101BE800FB68202283F83D20FB68002283F83E2012
:101BF800FB681A6CFB681A64FB68002283F83C20B7
:101C0800012329E0FEF7CAFC02467B68D21ABB68AA
:101C18009A4202D8BB68002B16D1FB6800221A63CF
:101C2800FB68202283F83D20FB68002283F83E20D1
:101C3800FB681B6C43F02002FB681A64FB680022F7
:101C480083F83C20012307E0FB681B685B6903F00D
:101C58004003402BB5D1002318461037BD4680BD40
:101C680080B483B000AF78607B681B685B6903F45D
:101C78008063B3F5806F1BD17B681B686FF480624B
:101C88005A617B6800221A637B68202283F83D2012
:101C98007B68002283F83E207B681B6C43F00402BB
:101CA8007B681A647B68002283F83C20012300E0EB
:101CB800002318460C37BD465DF8047B70470000CA
:101CC80080B586B000AF78607B68002B01D1012316
:101CD8005BE27B681B6803F00103002B75D0A34B04
:101CE8009B6803F00C03042B0CD0A04B9B6803F0FB
:101CF8000C03082B12D19D4B5B6803F48003B3F5EA
:101D0800800F0BD1994B1B6803F40033002B5BD079
:101D18007B685B68002B57D1012336E27B685B68E0
:101D2800B3F5803F06D1914A904B1B6843F480334A
:101D380013601DE07B685B68B3F5A02F0CD18B4A5C
:101D48008A4B1B6843F480231360884A874B1B68BF
:101D580043F4803313600BE0844A844B1B6823F4FC
:101D680080331360814A814B1B6823F480231360FE
:101D78007B685B68002B13D0FEF710FC386108E025
:101D8800FEF70CFC02463B69D31A642B01D90323E6
:101D9800FBE1764B1B6803F40033002BF0D014E012
:101DA800FEF7FCFB386108E0FEF7F8FB02463B69EA
:101DB800D31A642B01D90323E7E16C4B1B6803F4A6
:101DC8000033002BF0D100E000BF7B681B6803F0F4
:101DD8000203002B63D0654B9B6803F00C03002BB8
:101DE8000BD0624B9B6803F00C03082B1CD15F4B94
:101DF8005B6803F48003002B16D15C4B1B6803F06F
:101E08000203002B05D07B68DB68012B01D001237E
:101E1800BBE15649554B1B6823F0F8027B681B69E8
:101E2800DB0013430B603AE07B68DB68002B20D0B3
:101E38004F4B01221A60FEF7B1FB386108E0FEF74C
:101E4800ADFB02463B69D31A022B01D903239CE15F
:101E5800464B1B6803F00203002BF0D04349434B69
:101E68001B6823F0F8027B681B69DB0013430B60D7
:101E780015E03F4B00221A60FEF790FB386108E03E
:101E8800FEF78CFB02463B69D31A022B01D90323C8
:101E98007BE1364B1B6803F00203002BF0D17B6813
:101EA8001B6803F00803002B30D07B685B69002BAC
:101EB80016D0304B01221A60FEF770FB386108E03B
:101EC800FEF76CFB02463B69D31A022B01D90323A8
:101ED8005BE1264B5B6F03F00203002BF0D015E0AB
:101EE800244B00221A60FEF759FB386108E0FEF720
:101EF80055FB02463B69D31A022B01D9032344E15F
:101F08001A4B5B6F03F00203002BF0D17B681B6850
:101F180003F00403002B00F0A0800023FB75134B93
:101F28001B6C03F08053002B0FD10023BB600F4ABA
:101F38000E4B1B6C43F0805313640C4B1B6C03F06B
:101F48008053BB60BB680123FB750B4B1B6803F414
:101F58008073002B21D1084A074B1B6843F4807318
:101F68001360FEF71BFB386111E000BF0038024028
:101F780000004742800E474200700040FEF70EFB0B
:101F880002463B69D31A022B01D90323FDE0814B9A
:101F98001B6803F48073002BF0D07B689B68012BCF
:101FA80006D17D4A7C4B1B6F43F0010313671CE08D
:101FB8007B689B68052B0CD1774A774B1B6F43F0E6
:101FC80004031367744A744B1B6F43F001031367D0
:101FD8000BE0714A704B1B6F23F0010313676E4AC5
:101FE8006D4B1B6F23F0040313677B689B68002B02
:101FF80015D0FEF7D3FA38610AE0FEF7CFFA0246A9
:102008003B69D31A41F28832934201D90323BCE0D9
:10201800614B1B6F03F00203002BEED014E0FEF7B8
:10202800BDFA38610AE0FEF7B9FA02463B69D31AED
:1020380041F28832934201D90323A6E0564B1B6F25
:1020480003F00203002BEED1FB7D012B05D1524A90
:10205800514B1B6C23F0805313647B689B69002BE6
:1020680000F092804C4B9B6803F00C03082B5CD06B
:102078007B689B69022B41D1484B00221A60FEF70E
:102088008DFA386108E0FEF789FA02463B69D31AEF
:10209800022B01D9032378E03F4B1B6803F0007340
:1020A800002BF0D13C497B68DA697B681B6A1A43CC
:1020B8007B685B6A9B011A437B689B6A5B08013BF0
:1020C8001B041A437B68DB6A1B0613434B60334BC4
:1020D80001221A60FEF762FA386108E0FEF75EFA3C
:1020E80002463B69D31A022B01D903234DE02A4B40
:1020F8001B6803F00073002BF0D045E0274B00224B
:102108001A60FEF74BFA386108E0FEF747FA024614
:102118003B69D31A022B01D9032336E01E4B1B68F7
:1021280003F00073002BF0D12EE07B689B69012B34
:1021380001D1012329E0184B9B68FB60FB6803F47D
:1021480080027B68DB699A421CD1FB6803F03F027E
:102158007B681B6A9A4215D1FA6847F6C073134028
:102168007A68526A93420DD1FB6803F440327B6867
:102178009B6A9A4206D1FB6803F070627B68DB6A4F
:102188009A4201D0012300E0002318461837BD46C3
:1021980080BD00BF00700040003802406000474228
:1021A80080B584B000AF786039607B68002B01D1BE
:1021B8000123CCE0684B1B6803F00F023B689A428E
:1021C8000CD2654B3A68D2B21A70634B1B6803F0A5
:1021D8000F023B689A4201D00123B8E07B681B6874
:1021E80003F00203002B20D07B681B6803F0040374
:1021F800002B05D0594A594B9B6843F4E053936030
:102208007B681B6803F00803002B05D0534A534B27
:102218009B6843F4604393605049504B9B6823F09C
:10222800F0027B689B6813438B607B681B6803F034
:102238000103002B44D07B685B68012B07D1474B17
:102248001B6803F40033002B19D101237FE07B685E
:102258005B68022B03D07B685B68032B07D13F4B7D
:102268001B6803F00073002B09D101236FE03B4B7F
:102278001B6803F00203002B01D1012367E03749F3
:10228800364B9B6823F003027B685B6813438B60C3
:10229800FEF784F9F8600AE0FEF780F90246FB6869
:1022A800D31A41F28832934201D903234FE02B4BD2
:1022B8009B6803F00C027B685B689B009A42EBD139
:1022C800254B1B6803F00F023B689A420CD9224B3E
:1022D8003A68D2B21A70204B1B6803F00F023B68B1
:1022E8009A4201D0012332E07B681B6803F00403A3
:1022F800002B08D01949194B9B6823F4E0527B68DE
:10230800DB6813438B607B681B6803F00803002BB2
:1023180009D01249114B9B6823F460427B681B6902
:10232800DB0013438B6000F021F801460B4B9B68E0
:102338001B0903F00F030A4AD35C21FA03F3094A85
:102348001360094B1B681846FEF7E4F8002318468B
:102358001037BD4680BD00BF003C02400038024037
:10236800202B000808000020000000202DE9F04F75
:1023780087B000AF0022FA6000227A610022BA60BA
:1023880000223A61514A926802F00C02042A07D0EE
:10239800082A08D0002A40F090804D4B3B618FE01E
:1023A8004C4B3B618CE0494A526802F03F02FA60AC
:1023B800464A526802F48002002A23D0434B5B68E5
:1023C8009B094FF0000440F2FF114FF0000203EAAE
:1023D800010304EA02043F4A02FB04F1002202FB63
:1023E80003F20A443B49A3FB010153181946FB6851
:1023F8004FF000041A462346FDF7E2FE03460C465A
:102408007B614CE0314A5268920911464FF0000254
:1024180040F2FF154FF0000605EA010506EA02063C
:10242800294632464FEA421B4BEAD16B4FEA411A22
:1024380051465A46AA46B34655465E464D1B62EB80
:10244800060629463246940144EA91648B015B1AD8
:1024580064EB02044FEAC40949EA53794FEAC30816
:1024680043464C4655465E46ED1846EB04062B4659
:102478003446A2027A607A6842EA93527A609B02F2
:102488003B6097E8180018462146FB684FF00004A7
:102498001A462346FDF794FE03460C467B610B4B18
:1024A8005B681B0C03F0030301335B00BB607A69B4
:1024B800BB68B2FBF3F33B6102E0054B3B6100BF35
:1024C8003B6918461C37BD46BDE8F08F003802400E
:1024D8000024F40040787D0180B400AF034B1B68F2
:1024E8001846BD465DF8047B704700BF0800002011
:1024F80080B500AFFFF7F0FF0146054B9B689B0ACC
:1025080003F00703034AD35C21FA03F3184680BD9E
:1025180000380240302B000880B500AF0E4B002277
:102528001A700D4B1B7899B2642301220B48FEF7F1
:1025380057FF0346002B06D101224FF4805108486B
:10254800FEF7D8FA06E0044B1B780133DAB2024BE7
:102558001A70E6E700BF80BD280000203800002080
:10256800000C024080B584B004AF344B1B78032BB9
:1025780061D801A252F823F091250008C725000868
:10258800F12500081B260008642302930123019308
:102598002B4B009301230022A6212A48FEF7FAFCC0
:1025A8006420FEF707F8264B1B78E52B03D1234B55
:1025B80001221A703FE0214B00221A703BE0224BA7
:1025C8002D221A70204B00225A7064230093022394
:1025D8001D4AA6211B48FEF7DFFB6420FDF7EAFF32
:1025E800164B02221A7026E0174B2D221A70164B32
:1025F80008225A70642300930223134AA621114823
:10260800FEF7CAFB6420FDF7D5FF0C4B03221A70B6
:1026180011E00D4B31221A700B4B01225A706423C2
:1026280000930223084AA6210648FEF7B5FB64205A
:10263800FDF7C0FF00BF00BFBD4680BD2E000020D3
:102648008C000020380000202C00002080B586B0C7
:1026580004AFFDF73DFF00F049F800F0DFF800F0A7
:10266800AFF8FFF759FF00237B6004E0FFF77AFF1C
:102678007B6801337B607B68032BF7DD642302935F
:1026880006230193144B009301233222A6211348F9
:10269800FEF780FC104B5B781B021AB20E4B1B78BE
:1026A8001BB213431AB20E4B1A800B4BDB781B027A
:1026B8001AB2094B9B781BB213431AB2094B1A8002
:1026C800054B5B791B021AB2034B1B791BB21343F0
:1026D8001AB2054B1A80D1E78C0000203800002080
:1026E80034000020940000209200002080B594B0AF
:1026F80000AF07F1200330220021184600F0F8F956
:1027080007F10C0300221A605A609A60DA601A61B5
:102718000023BB60284A284B1B6C43F0805313648A
:10272800254B1B6C03F08053BB60BB6800237B60A8
:10273800224A224B1B6843F4804313601F4B1B68DB
:1027480003F480437B607B6802233B620123FB62C6
:1027580010233B630223BB630023FB6308233B6412
:10276800A8237B640223BB640423FB6407F12003D2
:102778001846FFF7A5FA0346002B01D000F0AEF883
:102788000F23FB6002233B6100237B614FF4A053BE
:10279800BB614FF48053FB6107F10C030521184618
:1027A800FFF7FEFC0346002B01D000F097F800BFAE
:1027B8005037BD4680BD00BF003802400070004061
:1027C80080B500AF124B134A1A60114B124A5A6077
:1027D8000F4B00229A600E4B0022DA600C4B4FF42C
:1027E80080421A610A4B00225A61094B00229A6101
:1027F800074B0022DA61064B00221A620448FEF7F2
:1028080093F90346002B01D000F068F800BF80BDA3
:102818003800002000540040801A060080B58AB0B5
:1028280000AF07F1140300221A605A609A60DA6058
:102838001A6100233B61274A264B1B6B43F0800338
:102848001363244B1B6B03F080033B613B6900233C
:10285800FB60204A1F4B1B6B43F0080313631D4B9F
:102868001B6B03F00803FB60FB680023BB60194A7D
:10287800184B1B6B43F001031363164B1B6B03F0E0
:102888000103BB60BB6800237B60124A114B1B6BC2
:1028980043F0020313630F4B1B6B03F002037B60CF
:1028A8007B6800224FF480510B48FEF723F94FF460
:1028B80080537B610123BB610023FB6100233B62E2
:1028C80007F1140319460448FDF77AFF00BF2837BB
:1028D800BD4680BD00380240000C024080B400AF05
:1028E80000BFBD465DF8047B7047000080B483B02C
:1028F80000AF00237B60104A0F4B5B6C43F48043AE
:1029080053640D4B5B6C03F480437B607B6800234E
:102918003B60094A084B1B6C43F080531364064B19
:102928001B6C03F080533B603B6800BF0C37BD460F
:102938005DF8047B704700BF0038024080B58AB05C
:1029480000AF786007F1140300221A605A609A6099
:10295800DA601A617B681B68194A93422BD10023FD
:102968003B61184A174B1B6B43F002031363154B6B
:102978001B6B03F002033B613B69C0237B6112239D
:10298800BB610123FB6103233B6204237B6207F1E4
:10299800140319460C48FDF713FF0023FB60094A8E
:1029A800084B1B6C43F400131364064B1B6C03F4B5
:1029B8000013FB60FB6800BF2837BD4680BD00BF21
:1029C80000540040003802400004024080B400AFC8
:1029D80000BFBD465DF8047B704780B400AFFEE7DA
:1029E80080B400AFFEE780B400AFFEE780B400AF6C
:1029F800FEE780B400AF00BFBD465DF8047B7047BA
:102A080080B400AF00BFBD465DF8047B704780B45A
:102A180000AF00BFBD465DF8047B704780B500AFCE
:102A2800FDF7A8FD00BF80BD80B400AF084A084B81
:102A3800D3F8883043F47003C2F88830044B4FF061
:102A480000629A6000BFBD465DF8047B704700BF16
:102A580000ED00E0DFF834D0002103E00C4B5B58B8
:102A6800435004310B480C4B42189A42F6D30B4A98
:102A780002E0002342F8043B094B9A42F9D3FFF7DE
:102A8800D3FF00F011F8FFF7E1FD704700000220C6
:102A9800482B0008000000200C0000200C0000203B
:102AA80098000020FEE7000070B50D4E0D4CA41BE9
:102AB800A4100025A54209D10B4E0C4C00F020F8BB
:102AC800A41BA4100025A54205D170BD56F82530D9
:102AD80098470135EEE756F8253098470135F2E773
:102AE800402B0008402B0008402B0008442B00080E
:102AF80002440346934200D1704703F8011BF9E7EB
:102B0800F8B500BFF8BC08BC9E467047F8B500BFD2
:082B1800F8BC08BC9E467047A2
:102B2000000000000000000001020304060708097D
:082B3000000000000102030493
:082B3800C0D6FF7F0100000080
:042B4000AD010008DB
:042B440089010008FB
:0C2B480010000000010000000024F40058
:0400000508002A5D68
:00000001FF
